{
  "contractName": "prismSale",
  "abi": [
    {
      "inputs": [],
      "stateMutability": "nonpayable",
      "type": "constructor"
    },
    {
      "inputs": [],
      "name": "charity",
      "outputs": [
        {
          "internalType": "address",
          "name": "",
          "type": "address"
        }
      ],
      "stateMutability": "view",
      "type": "function",
      "constant": true
    },
    {
      "inputs": [],
      "name": "maxSales",
      "outputs": [
        {
          "internalType": "uint256",
          "name": "",
          "type": "uint256"
        }
      ],
      "stateMutability": "view",
      "type": "function",
      "constant": true
    },
    {
      "inputs": [],
      "name": "owner",
      "outputs": [
        {
          "internalType": "address",
          "name": "",
          "type": "address"
        }
      ],
      "stateMutability": "view",
      "type": "function",
      "constant": true
    },
    {
      "inputs": [],
      "name": "totalSales",
      "outputs": [
        {
          "internalType": "uint256",
          "name": "",
          "type": "uint256"
        }
      ],
      "stateMutability": "view",
      "type": "function",
      "constant": true
    },
    {
      "inputs": [],
      "name": "hasAccess",
      "outputs": [
        {
          "internalType": "bool",
          "name": "",
          "type": "bool"
        }
      ],
      "stateMutability": "view",
      "type": "function",
      "constant": true
    },
    {
      "inputs": [],
      "name": "canBuy",
      "outputs": [
        {
          "internalType": "bool",
          "name": "",
          "type": "bool"
        }
      ],
      "stateMutability": "view",
      "type": "function",
      "constant": true
    },
    {
      "inputs": [],
      "name": "buy",
      "outputs": [
        {
          "internalType": "bool",
          "name": "",
          "type": "bool"
        }
      ],
      "stateMutability": "payable",
      "type": "function",
      "payable": true
    }
  ],
  "bytecode": "0x608060405234801561001057600080fd5b5060008081905550606460018190555073be76f70775e9b8b9ce798bee10b094b31a6498a6600260006101000a81548173ffffffffffffffffffffffffffffffffffffffff021916908373ffffffffffffffffffffffffffffffffffffffff16021790555073ce41cbd16fd67dc0d190c50e2644fa5114a71886600360006101000a81548173ffffffffffffffffffffffffffffffffffffffff021916908373ffffffffffffffffffffffffffffffffffffffff160217905550610835806100d96000396000f3fe6080604052600436106100705760003560e01c8063934aa0231161004e578063934aa023146100f6578063a6f2ae3a14610121578063bfdf9b6e1461013f578063ff65226c1461016a57610070565b80636605ff661461007557806385a2dd15146100a05780638da5cb5b146100cb575b600080fd5b34801561008157600080fd5b5061008a610195565b60405161009791906104be565b60405180910390f35b3480156100ac57600080fd5b506100b561019b565b6040516100c291906104f4565b60405180910390f35b3480156100d757600080fd5b506100e06101ef565b6040516100ed9190610550565b60405180910390f35b34801561010257600080fd5b5061010b610215565b6040516101189190610550565b60405180910390f35b61012961023b565b60405161013691906104f4565b60405180910390f35b34801561014b57600080fd5b50610154610491565b60405161016191906104be565b60405180910390f35b34801561017657600080fd5b5061017f610497565b60405161018c91906104f4565b60405180910390f35b60005481565b6000600460003373ffffffffffffffffffffffffffffffffffffffff1673ffffffffffffffffffffffffffffffffffffffff16815260200190815260200160002060009054906101000a900460ff16905090565b600260009054906101000a900473ffffffffffffffffffffffffffffffffffffffff1681565b600360009054906101000a900473ffffffffffffffffffffffffffffffffffffffff1681565b6000610245610497565b610284576040517f08c379a000000000000000000000000000000000000000000000000000000000815260040161027b906105c8565b60405180910390fd5b662386f26fc1000034146102cd576040517f08c379a00000000000000000000000000000000000000000000000000000000081526004016102c490610634565b60405180910390fd5b600015156102d961019b565b15151461031b576040517f08c379a0000000000000000000000000000000000000000000000000000000008152600401610312906106a0565b60405180910390fd5b600260009054906101000a900473ffffffffffffffffffffffffffffffffffffffff1673ffffffffffffffffffffffffffffffffffffffff166108fc606460503461036691906106ef565b6103709190610778565b9081150290604051600060405180830381858888f1935050505015801561039b573d6000803e3d6000fd5b50600360009054906101000a900473ffffffffffffffffffffffffffffffffffffffff1673ffffffffffffffffffffffffffffffffffffffff166108fc60646014346103e791906106ef565b6103f19190610778565b9081150290604051600060405180830381858888f1935050505015801561041c573d6000803e3d6000fd5b50600160005461042c91906107a9565b6000819055506001600460003373ffffffffffffffffffffffffffffffffffffffff1673ffffffffffffffffffffffffffffffffffffffff16815260200190815260200160002060006101000a81548160ff0219169083151502179055506001905090565b60015481565b600060015460005410905090565b6000819050919050565b6104b8816104a5565b82525050565b60006020820190506104d360008301846104af565b92915050565b60008115159050919050565b6104ee816104d9565b82525050565b600060208201905061050960008301846104e5565b92915050565b600073ffffffffffffffffffffffffffffffffffffffff82169050919050565b600061053a8261050f565b9050919050565b61054a8161052f565b82525050565b60006020820190506105656000830184610541565b92915050565b600082825260208201905092915050565b7f63616e7420627579202d6f7574206f662073746f636b00000000000000000000600082015250565b60006105b260168361056b565b91506105bd8261057c565b602082019050919050565b600060208201905081810360008301526105e1816105a5565b9050919050565b7f696e636f7272656374207061796d656e74000000000000000000000000000000600082015250565b600061061e60118361056b565b9150610629826105e8565b602082019050919050565b6000602082019050818103600083015261064d81610611565b9050919050565b7f616c726561647920626f75676874000000000000000000000000000000000000600082015250565b600061068a600e8361056b565b915061069582610654565b602082019050919050565b600060208201905081810360008301526106b98161067d565b9050919050565b7f4e487b7100000000000000000000000000000000000000000000000000000000600052601160045260246000fd5b60006106fa826104a5565b9150610705836104a5565b9250817fffffffffffffffffffffffffffffffffffffffffffffffffffffffffffffffff048311821515161561073e5761073d6106c0565b5b828202905092915050565b7f4e487b7100000000000000000000000000000000000000000000000000000000600052601260045260246000fd5b6000610783826104a5565b915061078e836104a5565b92508261079e5761079d610749565b5b828204905092915050565b60006107b4826104a5565b91506107bf836104a5565b9250827fffffffffffffffffffffffffffffffffffffffffffffffffffffffffffffffff038211156107f4576107f36106c0565b5b82820190509291505056fea264697066735822122043b46d5c9909f7f989373678efe2e0eefa298a0eb3fc52422e46aeaa200fac0a64736f6c634300080c0033",
  "immutableReferences": {},
  "source": "// SPDX-License-Identifier: MIT\npragma solidity >=0.4.22 <0.9.0;\n\ncontract prismSale {\n  uint public totalSales;\n  uint public maxSales;\n  \n  address public owner;\n  address public charity;\n\n  mapping(address=> bool) sales;\n\n\n\n  constructor(){\n    totalSales = 0;\n    maxSales = 100;\n\n    owner = 0xBE76F70775E9B8b9ce798BEe10B094B31a6498a6; //3rd one\n    charity = 0xce41cbD16FD67Dc0d190c50e2644fa5114a71886;//4th one\n\n  }\n\n  function hasAccess() public view returns (bool){ //checks whether the user already bought or not.\n      return sales[msg.sender];\n  }\n\n  function canBuy() public view returns(bool){\n    return totalSales<maxSales;\n  }\n\n\n\n  function buy() public payable returns(bool){\n\n    require(canBuy(),\"cant buy -out of stock\");\n    require(msg.value == 0.01 ether, \"incorrect payment\");\n    require(hasAccess() == false,\"already bought\"); //we are only going to sell to the person who hasnt bought it earlier.\n    \n\n    payable(owner).transfer(msg.value * 80/100); \n    payable(charity).transfer(msg.value* 20/100); // going to pay/send 20 % to charity.\n\n    totalSales = totalSales+1;\n\n    sales[msg.sender] = true; // it is to keep track of the user whether he bought or not.\n    return true;\n  }\n}\n",
  "sourcePath": "/Users/jayahariaditiya/Desktop/web/web3/Crypto + Web 3 for Creatives-5/code/prism/prism/contracts/prismSale.sol",
  "compiler": {
    "name": "solc",
    "version": "0.8.12+commit.f00d7308.Emscripten.clang"
  },
  "schemaVersion": "3.4.5",
  "updatedAt": "2022-03-09T12:54:48.411Z",
  "networkType": "ethereum",
  "devdoc": {
    "kind": "dev",
    "methods": {},
    "version": 1
  },
  "userdoc": {
    "kind": "user",
    "methods": {},
    "version": 1
  }
}